{
  "contractName": "Auction",
  "abi": [
    {
      "inputs": [
        {
          "internalType": "address",
          "name": "usdcAddress",
          "type": "address"
        },
        {
          "internalType": "address",
          "name": "auctionTokenAddress",
          "type": "address"
        }
      ],
      "stateMutability": "nonpayable",
      "type": "constructor"
    },
    {
      "inputs": [],
      "name": "TOKEN_ADDRESS",
      "outputs": [
        {
          "internalType": "address",
          "name": "",
          "type": "address"
        }
      ],
      "stateMutability": "view",
      "type": "function"
    },
    {
      "inputs": [],
      "name": "USDC_ADDRESS",
      "outputs": [
        {
          "internalType": "address",
          "name": "",
          "type": "address"
        }
      ],
      "stateMutability": "view",
      "type": "function"
    },
    {
      "inputs": [
        {
          "internalType": "uint256",
          "name": "_startTime",
          "type": "uint256"
        },
        {
          "internalType": "uint256",
          "name": "_endTime",
          "type": "uint256"
        },
        {
          "internalType": "uint256",
          "name": "_startPrice",
          "type": "uint256"
        },
        {
          "internalType": "uint256",
          "name": "_minimumPrice",
          "type": "uint256"
        },
        {
          "internalType": "uint256",
          "name": "_totalTokens",
          "type": "uint256"
        }
      ],
      "name": "createAuction",
      "outputs": [],
      "stateMutability": "nonpayable",
      "type": "function"
    },
    {
      "inputs": [
        {
          "internalType": "uint256",
          "name": "auctionId",
          "type": "uint256"
        }
      ],
      "name": "getCurrentPrice",
      "outputs": [
        {
          "internalType": "uint256",
          "name": "price",
          "type": "uint256"
        }
      ],
      "stateMutability": "view",
      "type": "function"
    },
    {
      "inputs": [
        {
          "internalType": "uint256",
          "name": "auctionId",
          "type": "uint256"
        }
      ],
      "name": "bidAuction",
      "outputs": [],
      "stateMutability": "nonpayable",
      "type": "function"
    },
    {
      "inputs": [
        {
          "internalType": "uint256",
          "name": "auctionId",
          "type": "uint256"
        }
      ],
      "name": "winAuction",
      "outputs": [],
      "stateMutability": "nonpayable",
      "type": "function"
    }
  ],
  "bytecode": "0x60806040523480156200001157600080fd5b5060405162001d1338038062001d138339818101604052810190620000379190620000e0565b600160008190555081600160006101000a81548173ffffffffffffffffffffffffffffffffffffffff021916908373ffffffffffffffffffffffffffffffffffffffff16021790555080600260006101000a81548173ffffffffffffffffffffffffffffffffffffffff021916908373ffffffffffffffffffffffffffffffffffffffff16021790555050506200017a565b600081519050620000da8162000160565b92915050565b60008060408385031215620000fa57620000f96200015b565b5b60006200010a85828601620000c9565b92505060206200011d85828601620000c9565b9150509250929050565b600062000134826200013b565b9050919050565b600073ffffffffffffffffffffffffffffffffffffffff82169050919050565b600080fd5b6200016b8162000127565b81146200017757600080fd5b50565b611b89806200018a6000396000f3fe608060405234801561001057600080fd5b50600436106100625760003560e01c80630bdf530014610067578063371ae6f71461008557806364a7d7c7146100a15780638a157df3146100bd578063bb09d9b7146100d9578063c55d0f56146100f7575b600080fd5b61006f610127565b60405161007c9190611397565b60405180910390f35b61009f600480360381019061009a9190611039565b61014d565b005b6100bb60048036038101906100b69190611039565b61047a565b005b6100d760048036038101906100d29190611093565b61072a565b005b6100e1610bb6565b6040516100ee9190611397565b60405180910390f35b610111600480360381019061010c9190611039565b610bdc565b60405161011e91906115cb565b60405180910390f35b600260009054906101000a900473ffffffffffffffffffffffffffffffffffffffff1681565b60026000541415610193576040517f08c379a000000000000000000000000000000000000000000000000000000000815260040161018a9061156b565b60405180910390fd5b60026000819055506000811180156101b057506003805490508111155b6101ef576040517f08c379a00000000000000000000000000000000000000000000000000000000081526004016101e69061158b565b60405180910390fd5b60006003600183610200919061166e565b815481106102115761021061174c565b5b90600052602060002090600702016040518060e00160405290816000820154815260200160018201548152602001600282015481526020016003820154815260200160048201548152602001600582015481526020016006820154815250509050428160400151116102b8576040517f08c379a00000000000000000000000000000000000000000000000000000000081526004016102af9061140b565b60405180910390fd5b600060046000848152602001908152602001600020805480602002602001604051908101604052809291908181526020016000905b82821015610393578382906000526020600020906004020160405180608001604052908160008201548152602001600182015481526020016002820160009054906101000a900473ffffffffffffffffffffffffffffffffffffffff1673ffffffffffffffffffffffffffffffffffffffff1673ffffffffffffffffffffffffffffffffffffffff168152602001600382015481525050815260200190600101906102ed565b50505050905060008151116103dd576040517f08c379a00000000000000000000000000000000000000000000000000000000081526004016103d49061142b565b60405180910390fd5b600081600183516103ee919061166e565b815181106103ff576103fe61174c565b5b602002602001015190506000816040015190506000600260009054906101000a900473ffffffffffffffffffffffffffffffffffffffff16905061046a308387606001518473ffffffffffffffffffffffffffffffffffffffff16610cc1909392919063ffffffff16565b5050505050600160008190555050565b600260005414156104c0576040517f08c379a00000000000000000000000000000000000000000000000000000000081526004016104b79061156b565b60405180910390fd5b60026000819055506000811180156104dd57506003805490508111155b61051c576040517f08c379a00000000000000000000000000000000000000000000000000000000081526004016105139061158b565b60405180910390fd5b6000600360018361052d919061166e565b8154811061053e5761053d61174c565b5b90600052602060002090600702016040518060e00160405290816000820154815260200160018201548152602001600282015481526020016003820154815260200160048201548152602001600582015481526020016006820154815250509050428160200151101580156105b65750428160400151105b6105f5576040517f08c379a00000000000000000000000000000000000000000000000000000000081526004016105ec9061140b565b60405180910390fd5b60008160c001519050600081141561061a5781608001518260c001818152505061063f565b6106358260a001518360800151610d4a90919063ffffffff16565b8260c00181815250505b6004600084815260200190815260200160002060405180608001604052808581526020014381526020013373ffffffffffffffffffffffffffffffffffffffff1681526020018460c001518152509080600181540180825580915050600190039060005260206000209060040201600090919091909150600082015181600001556020820151816001015560408201518160020160006101000a81548173ffffffffffffffffffffffffffffffffffffffff021916908373ffffffffffffffffffffffffffffffffffffffff1602179055506060820151816003015550505050600160008190555050565b60026000541415610770576040517f08c379a00000000000000000000000000000000000000000000000000000000081526004016107679061156b565b60405180910390fd5b60026000819055506402540be40085106107bf576040517f08c379a00000000000000000000000000000000000000000000000000000000081526004016107b6906115ab565b60405180910390fd5b6402540be4008410610806576040517f08c379a00000000000000000000000000000000000000000000000000000000081526004016107fd906115ab565b60405180910390fd5b42851015610849576040517f08c379a00000000000000000000000000000000000000000000000000000000081526004016108409061150b565b60405180910390fd5b84841161088b576040517f08c379a0000000000000000000000000000000000000000000000000000000008152600401610882906114eb565b60405180910390fd5b600081116108ce576040517f08c379a00000000000000000000000000000000000000000000000000000000081526004016108c59061148b565b60405180910390fd5b60008211610911576040517f08c379a0000000000000000000000000000000000000000000000000000000008152600401610908906114ab565b60405180910390fd5b60008311610954576040517f08c379a000000000000000000000000000000000000000000000000000000000815260040161094b9061146b565b60405180910390fd5b60003090506000600260009054906101000a900473ffffffffffffffffffffffffffffffffffffffff16905060008173ffffffffffffffffffffffffffffffffffffffff166370a08231336040518263ffffffff1660e01b81526004016109bb9190611397565b60206040518083038186803b1580156109d357600080fd5b505afa1580156109e7573d6000803e3d6000fd5b505050506040513d601f19601f82011682018060405250810190610a0b9190611066565b905083811015610a50576040517f08c379a0000000000000000000000000000000000000000000000000000000008152600401610a479061144b565b60405180910390fd5b8173ffffffffffffffffffffffffffffffffffffffff166323b872dd3385876040518463ffffffff1660e01b8152600401610a8d939291906113b2565b602060405180830381600087803b158015610aa757600080fd5b505af1158015610abb573d6000803e3d6000fd5b505050506040513d601f19601f82011682018060405250810190610adf919061100c565b5060006001600380549050610af49190611618565b905060006040518060e001604052808381526020018b81526020018a8152602001878152602001898152602001888152602001600081525090506003819080600181540180825580915050600190039060005260206000209060070201600090919091909150600082015181600001556020820151816001015560408201518160020155606082015181600301556080820151816004015560a0820151816005015560c082015181600601555050505050505060016000819055505050505050565b600160009054906101000a900473ffffffffffffffffffffffffffffffffffffffff1681565b60008082118015610bf257506003805490508211155b610c31576040517f08c379a0000000000000000000000000000000000000000000000000000000008152600401610c289061158b565b60405180910390fd5b60006003600184610c42919061166e565b81548110610c5357610c5261174c565b5b90600052602060002090600702016040518060e001604052908160008201548152602001600182015481526020016002820154815260200160038201548152602001600482015481526020016005820154815260200160068201548152505090508060c00151915050919050565b610d44846323b872dd60e01b858585604051602401610ce2939291906113b2565b604051602081830303815290604052907bffffffffffffffffffffffffffffffffffffffffffffffffffffffff19166020820180517bffffffffffffffffffffffffffffffffffffffffffffffffffffffff8381831617835250505050610d60565b50505050565b60008183610d589190611618565b905092915050565b6000610dc2826040518060400160405280602081526020017f5361666545524332303a206c6f772d6c6576656c2063616c6c206661696c65648152508573ffffffffffffffffffffffffffffffffffffffff16610e279092919063ffffffff16565b9050600081511115610e225780806020019051810190610de2919061100c565b610e21576040517f08c379a0000000000000000000000000000000000000000000000000000000008152600401610e189061154b565b60405180910390fd5b5b505050565b6060610e368484600085610e3f565b90509392505050565b606082471015610e84576040517f08c379a0000000000000000000000000000000000000000000000000000000008152600401610e7b906114cb565b60405180910390fd5b610e8d85610f53565b610ecc576040517f08c379a0000000000000000000000000000000000000000000000000000000008152600401610ec39061152b565b60405180910390fd5b6000808673ffffffffffffffffffffffffffffffffffffffff168587604051610ef59190611380565b60006040518083038185875af1925050503d8060008114610f32576040519150601f19603f3d011682016040523d82523d6000602084013e610f37565b606091505b5091509150610f47828286610f66565b92505050949350505050565b600080823b905060008111915050919050565b60608315610f7657829050610fc6565b600083511115610f895782518084602001fd5b816040517f08c379a0000000000000000000000000000000000000000000000000000000008152600401610fbd91906113e9565b60405180910390fd5b9392505050565b600081519050610fdc81611b25565b92915050565b600081359050610ff181611b3c565b92915050565b60008151905061100681611b3c565b92915050565b6000602082840312156110225761102161177b565b5b600061103084828501610fcd565b91505092915050565b60006020828403121561104f5761104e61177b565b5b600061105d84828501610fe2565b91505092915050565b60006020828403121561107c5761107b61177b565b5b600061108a84828501610ff7565b91505092915050565b600080600080600060a086880312156110af576110ae61177b565b5b60006110bd88828901610fe2565b95505060206110ce88828901610fe2565b94505060406110df88828901610fe2565b93505060606110f088828901610fe2565b925050608061110188828901610fe2565b9150509295509295909350565b611117816116a2565b82525050565b6000611128826115e6565b61113281856115fc565b93506111428185602086016116ea565b80840191505092915050565b6000611159826115f1565b6111638185611607565b93506111738185602086016116ea565b61117c81611780565b840191505092915050565b6000611194601b83611607565b915061119f82611791565b602082019050919050565b60006111b7600f83611607565b91506111c2826117ba565b602082019050919050565b60006111da603183611607565b91506111e5826117e3565b604082019050919050565b60006111fd602b83611607565b915061120882611832565b604082019050919050565b6000611220602f83611607565b915061122b82611881565b604082019050919050565b6000611243602d83611607565b915061124e826118d0565b604082019050919050565b6000611266602683611607565b91506112718261191f565b604082019050919050565b6000611289603083611607565b91506112948261196e565b604082019050919050565b60006112ac602a83611607565b91506112b7826119bd565b604082019050919050565b60006112cf601d83611607565b91506112da82611a0c565b602082019050919050565b60006112f2602a83611607565b91506112fd82611a35565b604082019050919050565b6000611315601f83611607565b915061132082611a84565b602082019050919050565b6000611338601e83611607565b915061134382611aad565b602082019050919050565b600061135b603c83611607565b915061136682611ad6565b604082019050919050565b61137a816116e0565b82525050565b600061138c828461111d565b915081905092915050565b60006020820190506113ac600083018461110e565b92915050565b60006060820190506113c7600083018661110e565b6113d4602083018561110e565b6113e16040830184611371565b949350505050565b60006020820190508181036000830152611403818461114e565b905092915050565b6000602082019050818103600083015261142481611187565b9050919050565b60006020820190508181036000830152611444816111aa565b9050919050565b60006020820190508181036000830152611464816111cd565b9050919050565b60006020820190508181036000830152611484816111f0565b9050919050565b600060208201905081810360008301526114a481611213565b9050919050565b600060208201905081810360008301526114c481611236565b9050919050565b600060208201905081810360008301526114e481611259565b9050919050565b600060208201905081810360008301526115048161127c565b9050919050565b600060208201905081810360008301526115248161129f565b9050919050565b60006020820190508181036000830152611544816112c2565b9050919050565b60006020820190508181036000830152611564816112e5565b9050919050565b6000602082019050818103600083015261158481611308565b9050919050565b600060208201905081810360008301526115a48161132b565b9050919050565b600060208201905081810360008301526115c48161134e565b9050919050565b60006020820190506115e06000830184611371565b92915050565b600081519050919050565b600081519050919050565b600081905092915050565b600082825260208201905092915050565b6000611623826116e0565b915061162e836116e0565b9250827fffffffffffffffffffffffffffffffffffffffffffffffffffffffffffffffff038211156116635761166261171d565b5b828201905092915050565b6000611679826116e0565b9150611684836116e0565b9250828210156116975761169661171d565b5b828203905092915050565b60006116ad826116c0565b9050919050565b60008115159050919050565b600073ffffffffffffffffffffffffffffffffffffffff82169050919050565b6000819050919050565b60005b838110156117085780820151818401526020810190506116ed565b83811115611717576000848401525b50505050565b7f4e487b7100000000000000000000000000000000000000000000000000000000600052601160045260246000fd5b7f4e487b7100000000000000000000000000000000000000000000000000000000600052603260045260246000fd5b600080fd5b6000601f19601f8301169050919050565b7f41756374696f6e3a2061756374696f6e2074696d652077726f6e670000000000600082015250565b7f41756374696f6e3a206e6f206269640000000000000000000000000000000000600082015250565b7f41756374696f6e3a2068617320616d6f756e74206d757374206265206c65737360008201527f207468656e20746f74616c20746f6b656e000000000000000000000000000000602082015250565b7f41756374696f6e3a207374617274207072696365206d7573742062652067726560008201527f61746572207468616e2030000000000000000000000000000000000000000000602082015250565b7f41756374696f6e3a20746f74616c20746f6b656e73206d75737420626520677260008201527f6561746572207468616e207a65726f0000000000000000000000000000000000602082015250565b7f41756374696f6e3a206d696e696d756d207072696365206d757374206265206760008201527f726561746572207468616e203000000000000000000000000000000000000000602082015250565b7f416464726573733a20696e73756666696369656e742062616c616e636520666f60008201527f722063616c6c0000000000000000000000000000000000000000000000000000602082015250565b7f41756374696f6e3a20656e642074696d65206d757374206265206f6c6465722060008201527f7468616e20737461727420707269636500000000000000000000000000000000602082015250565b7f41756374696f6e3a2073746172742074696d65206973206265666f726520637560008201527f7272656e742074696d6500000000000000000000000000000000000000000000602082015250565b7f416464726573733a2063616c6c20746f206e6f6e2d636f6e7472616374000000600082015250565b7f5361666545524332303a204552433230206f7065726174696f6e20646964206e60008201527f6f74207375636365656400000000000000000000000000000000000000000000602082015250565b7f5265656e7472616e637947756172643a207265656e7472616e742063616c6c00600082015250565b7f41756374696f6e3a2061756374696f6e4964206f75746f662072616e67650000600082015250565b7f41756374696f6e3a20656e74657220616e20756e69782074696d657374616d7060008201527f20696e207365636f6e64732c206e6f74206d696c697365636f6e647300000000602082015250565b611b2e816116b4565b8114611b3957600080fd5b50565b611b45816116e0565b8114611b5057600080fd5b5056fea2646970667358221220ab69329e17659ea1c183fddc2ce2626c9429bd5c15088907e3e594e4f0a32bc864736f6c63430008070033",
  "immutableReferences": {},
  "source": "// SPDX-License-Identifier: MIT\npragma solidity >=0.4.22 <0.9.0;\nimport \"@openzeppelin/contracts/security/ReentrancyGuard.sol\";\nimport \"@openzeppelin/contracts/token/ERC20/utils/SafeERC20.sol\";\nimport \"@openzeppelin/contracts/token/ERC20/IERC20.sol\";\nimport \"@openzeppelin/contracts/utils/math/SafeMath.sol\";\n\n\ncontract Auction is ReentrancyGuard{\n\n    using SafeERC20 for IERC20;\n    using SafeMath for uint256;\n\n    address public USDC_ADDRESS;\n    address public TOKEN_ADDRESS;\n    \n    struct MarketInfo {\n        uint256 auctionId;\n        uint256 startTime;\n        uint256 endTime;\n        uint256 totalTokens;\n        uint256 startPrice;\n        uint256 minimumPrice;\n        uint256 currentPrice;\n    }\n\n    struct BidHistory {\n        uint256 auctionId;\n        uint256 blockNumber;\n        address bidder;\n        uint256 price;\n    }\n\n    MarketInfo[] private market_infos;\n    mapping(uint256 => BidHistory[]) private bid_histories;\n\n    constructor(address usdcAddress, address auctionTokenAddress) {\n        USDC_ADDRESS = usdcAddress;\n        TOKEN_ADDRESS = auctionTokenAddress;\n    }\n\n    function createAuction(\n        uint256 _startTime,\n        uint256 _endTime,\n        uint256 _startPrice,\n        uint256 _minimumPrice,\n        uint256 _totalTokens\n    ) external nonReentrant{\n        require(_startTime < 10000000000, \"Auction: enter an unix timestamp in seconds, not miliseconds\");\n        require(_endTime < 10000000000, \"Auction: enter an unix timestamp in seconds, not miliseconds\");\n        require(_startTime >= block.timestamp, \"Auction: start time is before current time\");\n        require(_endTime > _startTime, \"Auction: end time must be older than start price\");\n        require(_totalTokens > 0,\"Auction: total tokens must be greater than zero\");\n        require(_minimumPrice > 0, \"Auction: minimum price must be greater than 0\"); \n        require(_startPrice > 0, \"Auction: start price must be greater than 0\");\n        address _this = address(this);\n        IERC20 _token = IERC20(TOKEN_ADDRESS);\n        uint total_amount = _token.balanceOf(msg.sender);\n        require(total_amount >= _totalTokens, \"Auction: has amount must be less then total token\");\n        _token.transferFrom(msg.sender, _this, _totalTokens);\n        uint256 auction_id = market_infos.length + 1;\n        MarketInfo memory market_info = MarketInfo({\n          auctionId: auction_id,\n          startTime: _startTime,\n          endTime:  _endTime,\n          startPrice: _startPrice,\n          minimumPrice: _minimumPrice,\n          totalTokens: _totalTokens,\n          currentPrice: 0\n        });\n        market_infos.push(market_info);\n    }\n\n    function getCurrentPrice(uint256 auctionId) public view returns (uint256 price) {\n      require(auctionId > 0 && auctionId <= market_infos.length, \"Auction: auctionId outof range\");\n      MarketInfo memory market_info = market_infos[auctionId - 1];\n      price = market_info.currentPrice;\n    }\n\n    function bidAuction(uint256 auctionId) external nonReentrant {\n      require(auctionId > 0 && auctionId <= market_infos.length, \"Auction: auctionId outof range\");\n      MarketInfo memory market_info = market_infos[auctionId - 1];\n      require(market_info.startTime >= block.timestamp && market_info.endTime < block.timestamp, \"Auction: auction time wrong\");\n      uint256 price = market_info.currentPrice;\n      if (price == 0) {\n        market_info.currentPrice = market_info.startPrice;\n      } else {\n        market_info.currentPrice = market_info.startPrice.add(market_info.minimumPrice);\n      }\n      bid_histories[auctionId].push(BidHistory({\n        auctionId: auctionId,\n        blockNumber: block.number,\n        bidder: msg.sender,\n        price: market_info.currentPrice\n      }));\n    }\n\n    function winAuction(uint256 auctionId) external nonReentrant {\n      require(auctionId > 0 && auctionId <= market_infos.length, \"Auction: auctionId outof range\");\n      MarketInfo memory market_info = market_infos[auctionId - 1];\n      require(market_info.endTime > block.timestamp, \"Auction: auction time wrong\");\n      BidHistory[] memory _bid_histories = bid_histories[auctionId];\n      require(_bid_histories.length > 0, \"Auction: no bid\");\n      BidHistory memory last_bid = _bid_histories[_bid_histories.length - 1];\n      address winner = last_bid.bidder;\n      IERC20 _token = IERC20(TOKEN_ADDRESS);\n       _token.safeTransferFrom(address(this), winner, market_info.totalTokens);\n    }\n}\n",
  "sourcePath": "/Users/xuxh/tests/contracts/auction/contracts/Auction.sol",
  "compiler": {
    "name": "solc",
    "version": "0.8.7+commit.e28d00a7.Emscripten.clang"
  },
  "schemaVersion": "3.4.1",
  "updatedAt": "2021-08-31T10:06:02.289Z",
  "devdoc": {
    "kind": "dev",
    "methods": {},
    "version": 1
  },
  "userdoc": {
    "kind": "user",
    "methods": {},
    "version": 1
  }
}