{
  "contractName": "AuctionToken",
  "abi": [
    {
      "inputs": [],
      "stateMutability": "nonpayable",
      "type": "constructor"
    },
    {
      "anonymous": false,
      "inputs": [
        {
          "indexed": true,
          "internalType": "address",
          "name": "owner",
          "type": "address"
        },
        {
          "indexed": true,
          "internalType": "address",
          "name": "spender",
          "type": "address"
        },
        {
          "indexed": false,
          "internalType": "uint256",
          "name": "value",
          "type": "uint256"
        }
      ],
      "name": "Approval",
      "type": "event"
    },
    {
      "anonymous": false,
      "inputs": [
        {
          "indexed": true,
          "internalType": "address",
          "name": "previousOwner",
          "type": "address"
        },
        {
          "indexed": true,
          "internalType": "address",
          "name": "newOwner",
          "type": "address"
        }
      ],
      "name": "OwnershipTransferred",
      "type": "event"
    },
    {
      "anonymous": false,
      "inputs": [
        {
          "indexed": false,
          "internalType": "address",
          "name": "account",
          "type": "address"
        }
      ],
      "name": "Paused",
      "type": "event"
    },
    {
      "anonymous": false,
      "inputs": [
        {
          "indexed": true,
          "internalType": "address",
          "name": "from",
          "type": "address"
        },
        {
          "indexed": true,
          "internalType": "address",
          "name": "to",
          "type": "address"
        },
        {
          "indexed": false,
          "internalType": "uint256",
          "name": "value",
          "type": "uint256"
        }
      ],
      "name": "Transfer",
      "type": "event"
    },
    {
      "anonymous": false,
      "inputs": [
        {
          "indexed": false,
          "internalType": "address",
          "name": "account",
          "type": "address"
        }
      ],
      "name": "Unpaused",
      "type": "event"
    },
    {
      "inputs": [],
      "name": "INITIAL_SUPPLY",
      "outputs": [
        {
          "internalType": "uint256",
          "name": "",
          "type": "uint256"
        }
      ],
      "stateMutability": "view",
      "type": "function"
    },
    {
      "inputs": [
        {
          "internalType": "address",
          "name": "owner",
          "type": "address"
        },
        {
          "internalType": "address",
          "name": "spender",
          "type": "address"
        }
      ],
      "name": "allowance",
      "outputs": [
        {
          "internalType": "uint256",
          "name": "",
          "type": "uint256"
        }
      ],
      "stateMutability": "view",
      "type": "function"
    },
    {
      "inputs": [
        {
          "internalType": "address",
          "name": "spender",
          "type": "address"
        },
        {
          "internalType": "uint256",
          "name": "amount",
          "type": "uint256"
        }
      ],
      "name": "approve",
      "outputs": [
        {
          "internalType": "bool",
          "name": "",
          "type": "bool"
        }
      ],
      "stateMutability": "nonpayable",
      "type": "function"
    },
    {
      "inputs": [
        {
          "internalType": "address",
          "name": "account",
          "type": "address"
        }
      ],
      "name": "balanceOf",
      "outputs": [
        {
          "internalType": "uint256",
          "name": "",
          "type": "uint256"
        }
      ],
      "stateMutability": "view",
      "type": "function"
    },
    {
      "inputs": [],
      "name": "decimals",
      "outputs": [
        {
          "internalType": "uint8",
          "name": "",
          "type": "uint8"
        }
      ],
      "stateMutability": "view",
      "type": "function"
    },
    {
      "inputs": [
        {
          "internalType": "address",
          "name": "spender",
          "type": "address"
        },
        {
          "internalType": "uint256",
          "name": "subtractedValue",
          "type": "uint256"
        }
      ],
      "name": "decreaseAllowance",
      "outputs": [
        {
          "internalType": "bool",
          "name": "",
          "type": "bool"
        }
      ],
      "stateMutability": "nonpayable",
      "type": "function"
    },
    {
      "inputs": [
        {
          "internalType": "address",
          "name": "spender",
          "type": "address"
        },
        {
          "internalType": "uint256",
          "name": "addedValue",
          "type": "uint256"
        }
      ],
      "name": "increaseAllowance",
      "outputs": [
        {
          "internalType": "bool",
          "name": "",
          "type": "bool"
        }
      ],
      "stateMutability": "nonpayable",
      "type": "function"
    },
    {
      "inputs": [],
      "name": "name",
      "outputs": [
        {
          "internalType": "string",
          "name": "",
          "type": "string"
        }
      ],
      "stateMutability": "view",
      "type": "function"
    },
    {
      "inputs": [],
      "name": "owner",
      "outputs": [
        {
          "internalType": "address",
          "name": "",
          "type": "address"
        }
      ],
      "stateMutability": "view",
      "type": "function"
    },
    {
      "inputs": [],
      "name": "paused",
      "outputs": [
        {
          "internalType": "bool",
          "name": "",
          "type": "bool"
        }
      ],
      "stateMutability": "view",
      "type": "function"
    },
    {
      "inputs": [],
      "name": "renounceOwnership",
      "outputs": [],
      "stateMutability": "nonpayable",
      "type": "function"
    },
    {
      "inputs": [],
      "name": "symbol",
      "outputs": [
        {
          "internalType": "string",
          "name": "",
          "type": "string"
        }
      ],
      "stateMutability": "view",
      "type": "function"
    },
    {
      "inputs": [],
      "name": "totalSupply",
      "outputs": [
        {
          "internalType": "uint256",
          "name": "",
          "type": "uint256"
        }
      ],
      "stateMutability": "view",
      "type": "function"
    },
    {
      "inputs": [
        {
          "internalType": "address",
          "name": "recipient",
          "type": "address"
        },
        {
          "internalType": "uint256",
          "name": "amount",
          "type": "uint256"
        }
      ],
      "name": "transfer",
      "outputs": [
        {
          "internalType": "bool",
          "name": "",
          "type": "bool"
        }
      ],
      "stateMutability": "nonpayable",
      "type": "function"
    },
    {
      "inputs": [
        {
          "internalType": "address",
          "name": "sender",
          "type": "address"
        },
        {
          "internalType": "address",
          "name": "recipient",
          "type": "address"
        },
        {
          "internalType": "uint256",
          "name": "amount",
          "type": "uint256"
        }
      ],
      "name": "transferFrom",
      "outputs": [
        {
          "internalType": "bool",
          "name": "",
          "type": "bool"
        }
      ],
      "stateMutability": "nonpayable",
      "type": "function"
    },
    {
      "inputs": [
        {
          "internalType": "address",
          "name": "newOwner",
          "type": "address"
        }
      ],
      "name": "transferOwnership",
      "outputs": [],
      "stateMutability": "nonpayable",
      "type": "function"
    },
    {
      "inputs": [],
      "name": "pause",
      "outputs": [],
      "stateMutability": "nonpayable",
      "type": "function"
    },
    {
      "inputs": [],
      "name": "unpause",
      "outputs": [],
      "stateMutability": "nonpayable",
      "type": "function"
    }
  ],
  "bytecode": "0x60806040523480156200001157600080fd5b506040518060400160405280600d81526020017f41756374696f6e20546f6b656e000000000000000000000000000000000000008152506040518060400160405280600c81526020017f41756374696f6e546f6b656e0000000000000000000000000000000000000000815250816003908051906020019062000096929190620003e8565b508060049080519060200190620000af929190620003e8565b5050506000600560006101000a81548160ff021916908315150217905550620000ed620000e16200011060201b60201c565b6200011860201b60201c565b6200010a336a52b7d2dcc80cd2e4000000620001de60201b60201c565b620006dc565b600033905090565b6000600560019054906101000a900473ffffffffffffffffffffffffffffffffffffffff16905081600560016101000a81548173ffffffffffffffffffffffffffffffffffffffff021916908373ffffffffffffffffffffffffffffffffffffffff1602179055508173ffffffffffffffffffffffffffffffffffffffff168173ffffffffffffffffffffffffffffffffffffffff167f8be0079c531659141344cd1fd0a4f28419497f9722a3daafe3b4186f6b6457e060405160405180910390a35050565b600073ffffffffffffffffffffffffffffffffffffffff168273ffffffffffffffffffffffffffffffffffffffff16141562000251576040517f08c379a00000000000000000000000000000000000000000000000000000000081526004016200024890620004f7565b60405180910390fd5b62000265600083836200035760201b60201c565b806002600082825462000279919062000569565b92505081905550806000808473ffffffffffffffffffffffffffffffffffffffff1673ffffffffffffffffffffffffffffffffffffffff1681526020019081526020016000206000828254620002d0919062000569565b925050819055508173ffffffffffffffffffffffffffffffffffffffff16600073ffffffffffffffffffffffffffffffffffffffff167fddf252ad1be2c89b69c2b068fc378daa952ba7f163c4a11628f55a4df523b3ef836040516200033791906200053b565b60405180910390a36200035360008383620003c760201b60201c565b5050565b6200036f838383620003cc60201b62000b241760201c565b6200037f620003d160201b60201c565b15620003c2576040517f08c379a0000000000000000000000000000000000000000000000000000000008152600401620003b99062000519565b60405180910390fd5b505050565b505050565b505050565b6000600560009054906101000a900460ff16905090565b828054620003f690620005d0565b90600052602060002090601f0160209004810192826200041a576000855562000466565b82601f106200043557805160ff191683800117855562000466565b8280016001018555821562000466579182015b828111156200046557825182559160200191906001019062000448565b5b50905062000475919062000479565b5090565b5b80821115620004945760008160009055506001016200047a565b5090565b6000620004a7601f8362000558565b9150620004b48262000664565b602082019050919050565b6000620004ce602a8362000558565b9150620004db826200068d565b604082019050919050565b620004f181620005c6565b82525050565b60006020820190508181036000830152620005128162000498565b9050919050565b600060208201905081810360008301526200053481620004bf565b9050919050565b6000602082019050620005526000830184620004e6565b92915050565b600082825260208201905092915050565b60006200057682620005c6565b91506200058383620005c6565b9250827fffffffffffffffffffffffffffffffffffffffffffffffffffffffffffffffff03821115620005bb57620005ba62000606565b5b828201905092915050565b6000819050919050565b60006002820490506001821680620005e957607f821691505b602082108114156200060057620005ff62000635565b5b50919050565b7f4e487b7100000000000000000000000000000000000000000000000000000000600052601160045260246000fd5b7f4e487b7100000000000000000000000000000000000000000000000000000000600052602260045260246000fd5b7f45524332303a206d696e7420746f20746865207a65726f206164647265737300600082015250565b7f45524332305061757361626c653a20746f6b656e207472616e7366657220776860008201527f696c652070617573656400000000000000000000000000000000000000000000602082015250565b611c7c80620006ec6000396000f3fe608060405234801561001057600080fd5b50600436106101165760003560e01c806370a08231116100a257806395d89b411161007157806395d89b41146102ad578063a457c2d7146102cb578063a9059cbb146102fb578063dd62ed3e1461032b578063f2fde38b1461035b57610116565b806370a082311461024b578063715018a61461027b5780638456cb59146102855780638da5cb5b1461028f57610116565b80632ff2e9dc116100e95780632ff2e9dc146101b7578063313ce567146101d557806339509351146101f35780633f4ba83a146102235780635c975abb1461022d57610116565b806306fdde031461011b578063095ea7b31461013957806318160ddd1461016957806323b872dd14610187575b600080fd5b610123610377565b604051610130919061155e565b60405180910390f35b610153600480360381019061014e91906112cf565b610409565b6040516101609190611543565b60405180910390f35b610171610427565b60405161017e9190611700565b60405180910390f35b6101a1600480360381019061019c919061127c565b610431565b6040516101ae9190611543565b60405180910390f35b6101bf610529565b6040516101cc9190611700565b60405180910390f35b6101dd610538565b6040516101ea919061171b565b60405180910390f35b61020d600480360381019061020891906112cf565b610541565b60405161021a9190611543565b60405180910390f35b61022b6105ed565b005b610235610673565b6040516102429190611543565b60405180910390f35b6102656004803603810190610260919061120f565b61068a565b6040516102729190611700565b60405180910390f35b6102836106d2565b005b61028d61075a565b005b6102976107e0565b6040516102a49190611528565b60405180910390f35b6102b561080a565b6040516102c2919061155e565b60405180910390f35b6102e560048036038101906102e091906112cf565b61089c565b6040516102f29190611543565b60405180910390f35b610315600480360381019061031091906112cf565b610987565b6040516103229190611543565b60405180910390f35b6103456004803603810190610340919061123c565b6109a5565b6040516103529190611700565b60405180910390f35b6103756004803603810190610370919061120f565b610a2c565b005b60606003805461038690611830565b80601f01602080910402602001604051908101604052809291908181526020018280546103b290611830565b80156103ff5780601f106103d4576101008083540402835291602001916103ff565b820191906000526020600020905b8154815290600101906020018083116103e257829003601f168201915b5050505050905090565b600061041d610416610b29565b8484610b31565b6001905092915050565b6000600254905090565b600061043e848484610cfc565b6000600160008673ffffffffffffffffffffffffffffffffffffffff1673ffffffffffffffffffffffffffffffffffffffff1681526020019081526020016000206000610489610b29565b73ffffffffffffffffffffffffffffffffffffffff1673ffffffffffffffffffffffffffffffffffffffff16815260200190815260200160002054905082811015610509576040517f08c379a000000000000000000000000000000000000000000000000000000000815260040161050090611640565b60405180910390fd5b61051d85610515610b29565b858403610b31565b60019150509392505050565b6a52b7d2dcc80cd2e400000081565b60006012905090565b60006105e361054e610b29565b84846001600061055c610b29565b73ffffffffffffffffffffffffffffffffffffffff1673ffffffffffffffffffffffffffffffffffffffff16815260200190815260200160002060008873ffffffffffffffffffffffffffffffffffffffff1673ffffffffffffffffffffffffffffffffffffffff168152602001908152602001600020546105de9190611752565b610b31565b6001905092915050565b6105f5610b29565b73ffffffffffffffffffffffffffffffffffffffff166106136107e0565b73ffffffffffffffffffffffffffffffffffffffff1614610669576040517f08c379a000000000000000000000000000000000000000000000000000000000815260040161066090611660565b60405180910390fd5b610671610f7d565b565b6000600560009054906101000a900460ff16905090565b60008060008373ffffffffffffffffffffffffffffffffffffffff1673ffffffffffffffffffffffffffffffffffffffff168152602001908152602001600020549050919050565b6106da610b29565b73ffffffffffffffffffffffffffffffffffffffff166106f86107e0565b73ffffffffffffffffffffffffffffffffffffffff161461074e576040517f08c379a000000000000000000000000000000000000000000000000000000000815260040161074590611660565b60405180910390fd5b610758600061101f565b565b610762610b29565b73ffffffffffffffffffffffffffffffffffffffff166107806107e0565b73ffffffffffffffffffffffffffffffffffffffff16146107d6576040517f08c379a00000000000000000000000000000000000000000000000000000000081526004016107cd90611660565b60405180910390fd5b6107de6110e5565b565b6000600560019054906101000a900473ffffffffffffffffffffffffffffffffffffffff16905090565b60606004805461081990611830565b80601f016020809104026020016040519081016040528092919081815260200182805461084590611830565b80156108925780601f1061086757610100808354040283529160200191610892565b820191906000526020600020905b81548152906001019060200180831161087557829003601f168201915b5050505050905090565b600080600160006108ab610b29565b73ffffffffffffffffffffffffffffffffffffffff1673ffffffffffffffffffffffffffffffffffffffff16815260200190815260200160002060008573ffffffffffffffffffffffffffffffffffffffff1673ffffffffffffffffffffffffffffffffffffffff16815260200190815260200160002054905082811015610968576040517f08c379a000000000000000000000000000000000000000000000000000000000815260040161095f906116c0565b60405180910390fd5b61097c610973610b29565b85858403610b31565b600191505092915050565b600061099b610994610b29565b8484610cfc565b6001905092915050565b6000600160008473ffffffffffffffffffffffffffffffffffffffff1673ffffffffffffffffffffffffffffffffffffffff16815260200190815260200160002060008373ffffffffffffffffffffffffffffffffffffffff1673ffffffffffffffffffffffffffffffffffffffff16815260200190815260200160002054905092915050565b610a34610b29565b73ffffffffffffffffffffffffffffffffffffffff16610a526107e0565b73ffffffffffffffffffffffffffffffffffffffff1614610aa8576040517f08c379a0000000000000000000000000000000000000000000000000000000008152600401610a9f90611660565b60405180910390fd5b600073ffffffffffffffffffffffffffffffffffffffff168173ffffffffffffffffffffffffffffffffffffffff161415610b18576040517f08c379a0000000000000000000000000000000000000000000000000000000008152600401610b0f906115c0565b60405180910390fd5b610b218161101f565b50565b505050565b600033905090565b600073ffffffffffffffffffffffffffffffffffffffff168373ffffffffffffffffffffffffffffffffffffffff161415610ba1576040517f08c379a0000000000000000000000000000000000000000000000000000000008152600401610b98906116a0565b60405180910390fd5b600073ffffffffffffffffffffffffffffffffffffffff168273ffffffffffffffffffffffffffffffffffffffff161415610c11576040517f08c379a0000000000000000000000000000000000000000000000000000000008152600401610c08906115e0565b60405180910390fd5b80600160008573ffffffffffffffffffffffffffffffffffffffff1673ffffffffffffffffffffffffffffffffffffffff16815260200190815260200160002060008473ffffffffffffffffffffffffffffffffffffffff1673ffffffffffffffffffffffffffffffffffffffff168152602001908152602001600020819055508173ffffffffffffffffffffffffffffffffffffffff168373ffffffffffffffffffffffffffffffffffffffff167f8c5be1e5ebec7d5bd14f71427d1e84f3dd0314c0f7b2291e5b200ac8c7c3b92583604051610cef9190611700565b60405180910390a3505050565b600073ffffffffffffffffffffffffffffffffffffffff168373ffffffffffffffffffffffffffffffffffffffff161415610d6c576040517f08c379a0000000000000000000000000000000000000000000000000000000008152600401610d6390611680565b60405180910390fd5b600073ffffffffffffffffffffffffffffffffffffffff168273ffffffffffffffffffffffffffffffffffffffff161415610ddc576040517f08c379a0000000000000000000000000000000000000000000000000000000008152600401610dd390611580565b60405180910390fd5b610de7838383611188565b60008060008573ffffffffffffffffffffffffffffffffffffffff1673ffffffffffffffffffffffffffffffffffffffff16815260200190815260200160002054905081811015610e6d576040517f08c379a0000000000000000000000000000000000000000000000000000000008152600401610e6490611600565b60405180910390fd5b8181036000808673ffffffffffffffffffffffffffffffffffffffff1673ffffffffffffffffffffffffffffffffffffffff16815260200190815260200160002081905550816000808573ffffffffffffffffffffffffffffffffffffffff1673ffffffffffffffffffffffffffffffffffffffff1681526020019081526020016000206000828254610f009190611752565b925050819055508273ffffffffffffffffffffffffffffffffffffffff168473ffffffffffffffffffffffffffffffffffffffff167fddf252ad1be2c89b69c2b068fc378daa952ba7f163c4a11628f55a4df523b3ef84604051610f649190611700565b60405180910390a3610f778484846111e0565b50505050565b610f85610673565b610fc4576040517f08c379a0000000000000000000000000000000000000000000000000000000008152600401610fbb906115a0565b60405180910390fd5b6000600560006101000a81548160ff0219169083151502179055507f5db9ee0a495bf2e6ff9c91a7834c1ba4fdd244a5e8aa4e537bd38aeae4b073aa611008610b29565b6040516110159190611528565b60405180910390a1565b6000600560019054906101000a900473ffffffffffffffffffffffffffffffffffffffff16905081600560016101000a81548173ffffffffffffffffffffffffffffffffffffffff021916908373ffffffffffffffffffffffffffffffffffffffff1602179055508173ffffffffffffffffffffffffffffffffffffffff168173ffffffffffffffffffffffffffffffffffffffff167f8be0079c531659141344cd1fd0a4f28419497f9722a3daafe3b4186f6b6457e060405160405180910390a35050565b6110ed610673565b1561112d576040517f08c379a000000000000000000000000000000000000000000000000000000000815260040161112490611620565b60405180910390fd5b6001600560006101000a81548160ff0219169083151502179055507f62e78cea01bee320cd4e420270b5ea74000d11b0c9f74754ebdbfc544b05a258611171610b29565b60405161117e9190611528565b60405180910390a1565b611193838383610b24565b61119b610673565b156111db576040517f08c379a00000000000000000000000000000000000000000000000000000000081526004016111d2906116e0565b60405180910390fd5b505050565b505050565b6000813590506111f481611c18565b92915050565b60008135905061120981611c2f565b92915050565b600060208284031215611225576112246118c0565b5b6000611233848285016111e5565b91505092915050565b60008060408385031215611253576112526118c0565b5b6000611261858286016111e5565b9250506020611272858286016111e5565b9150509250929050565b600080600060608486031215611295576112946118c0565b5b60006112a3868287016111e5565b93505060206112b4868287016111e5565b92505060406112c5868287016111fa565b9150509250925092565b600080604083850312156112e6576112e56118c0565b5b60006112f4858286016111e5565b9250506020611305858286016111fa565b9150509250929050565b611318816117a8565b82525050565b611327816117ba565b82525050565b600061133882611736565b6113428185611741565b93506113528185602086016117fd565b61135b816118c5565b840191505092915050565b6000611373602383611741565b915061137e826118d6565b604082019050919050565b6000611396601483611741565b91506113a182611925565b602082019050919050565b60006113b9602683611741565b91506113c48261194e565b604082019050919050565b60006113dc602283611741565b91506113e78261199d565b604082019050919050565b60006113ff602683611741565b915061140a826119ec565b604082019050919050565b6000611422601083611741565b915061142d82611a3b565b602082019050919050565b6000611445602883611741565b915061145082611a64565b604082019050919050565b6000611468602083611741565b915061147382611ab3565b602082019050919050565b600061148b602583611741565b915061149682611adc565b604082019050919050565b60006114ae602483611741565b91506114b982611b2b565b604082019050919050565b60006114d1602583611741565b91506114dc82611b7a565b604082019050919050565b60006114f4602a83611741565b91506114ff82611bc9565b604082019050919050565b611513816117e6565b82525050565b611522816117f0565b82525050565b600060208201905061153d600083018461130f565b92915050565b6000602082019050611558600083018461131e565b92915050565b60006020820190508181036000830152611578818461132d565b905092915050565b6000602082019050818103600083015261159981611366565b9050919050565b600060208201905081810360008301526115b981611389565b9050919050565b600060208201905081810360008301526115d9816113ac565b9050919050565b600060208201905081810360008301526115f9816113cf565b9050919050565b60006020820190508181036000830152611619816113f2565b9050919050565b6000602082019050818103600083015261163981611415565b9050919050565b6000602082019050818103600083015261165981611438565b9050919050565b600060208201905081810360008301526116798161145b565b9050919050565b600060208201905081810360008301526116998161147e565b9050919050565b600060208201905081810360008301526116b9816114a1565b9050919050565b600060208201905081810360008301526116d9816114c4565b9050919050565b600060208201905081810360008301526116f9816114e7565b9050919050565b6000602082019050611715600083018461150a565b92915050565b60006020820190506117306000830184611519565b92915050565b600081519050919050565b600082825260208201905092915050565b600061175d826117e6565b9150611768836117e6565b9250827fffffffffffffffffffffffffffffffffffffffffffffffffffffffffffffffff0382111561179d5761179c611862565b5b828201905092915050565b60006117b3826117c6565b9050919050565b60008115159050919050565b600073ffffffffffffffffffffffffffffffffffffffff82169050919050565b6000819050919050565b600060ff82169050919050565b60005b8381101561181b578082015181840152602081019050611800565b8381111561182a576000848401525b50505050565b6000600282049050600182168061184857607f821691505b6020821081141561185c5761185b611891565b5b50919050565b7f4e487b7100000000000000000000000000000000000000000000000000000000600052601160045260246000fd5b7f4e487b7100000000000000000000000000000000000000000000000000000000600052602260045260246000fd5b600080fd5b6000601f19601f8301169050919050565b7f45524332303a207472616e7366657220746f20746865207a65726f206164647260008201527f6573730000000000000000000000000000000000000000000000000000000000602082015250565b7f5061757361626c653a206e6f7420706175736564000000000000000000000000600082015250565b7f4f776e61626c653a206e6577206f776e657220697320746865207a65726f206160008201527f6464726573730000000000000000000000000000000000000000000000000000602082015250565b7f45524332303a20617070726f766520746f20746865207a65726f20616464726560008201527f7373000000000000000000000000000000000000000000000000000000000000602082015250565b7f45524332303a207472616e7366657220616d6f756e742065786365656473206260008201527f616c616e63650000000000000000000000000000000000000000000000000000602082015250565b7f5061757361626c653a2070617573656400000000000000000000000000000000600082015250565b7f45524332303a207472616e7366657220616d6f756e742065786365656473206160008201527f6c6c6f77616e6365000000000000000000000000000000000000000000000000602082015250565b7f4f776e61626c653a2063616c6c6572206973206e6f7420746865206f776e6572600082015250565b7f45524332303a207472616e736665722066726f6d20746865207a65726f20616460008201527f6472657373000000000000000000000000000000000000000000000000000000602082015250565b7f45524332303a20617070726f76652066726f6d20746865207a65726f2061646460008201527f7265737300000000000000000000000000000000000000000000000000000000602082015250565b7f45524332303a2064656372656173656420616c6c6f77616e63652062656c6f7760008201527f207a65726f000000000000000000000000000000000000000000000000000000602082015250565b7f45524332305061757361626c653a20746f6b656e207472616e7366657220776860008201527f696c652070617573656400000000000000000000000000000000000000000000602082015250565b611c21816117a8565b8114611c2c57600080fd5b50565b611c38816117e6565b8114611c4357600080fd5b5056fea26469706673582212203627c4c42be5d790a0c31d545b42077a849261b11653d448021a9ba801e1111664736f6c63430008070033",
  "immutableReferences": {},
  "source": "// SPDX-License-Identifier: MIT\npragma solidity >=0.4.22 <0.9.0;\nimport \"@openzeppelin/contracts/token/ERC20/ERC20.sol\";\nimport \"@openzeppelin/contracts/token/ERC20/extensions/ERC20Pausable.sol\";\nimport '@openzeppelin/contracts/access/Ownable.sol';\n\n\ncontract AuctionToken is ERC20Pausable, Ownable {\n    uint256 public constant INITIAL_SUPPLY = 100_000_000 * 1e18; \n    constructor() ERC20(\"Auction Token\", \"AuctionToken\") {\n      _mint(msg.sender, INITIAL_SUPPLY);\n    }\n\n    function pause() public onlyOwner {\n      _pause();\n    }\n\n    function unpause() public onlyOwner {\n      _unpause();\n    }\n}\n",
  "sourcePath": "/Users/xuxh/tests/contracts/auction/contracts/AuctionToken.sol",
  "compiler": {
    "name": "solc",
    "version": "0.8.7+commit.e28d00a7.Emscripten.clang"
  },
  "schemaVersion": "3.4.1",
  "updatedAt": "2021-08-30T04:00:23.680Z",
  "devdoc": {
    "kind": "dev",
    "methods": {
      "allowance(address,address)": {
        "details": "See {IERC20-allowance}."
      },
      "approve(address,uint256)": {
        "details": "See {IERC20-approve}. Requirements: - `spender` cannot be the zero address."
      },
      "balanceOf(address)": {
        "details": "See {IERC20-balanceOf}."
      },
      "decimals()": {
        "details": "Returns the number of decimals used to get its user representation. For example, if `decimals` equals `2`, a balance of `505` tokens should be displayed to a user as `5.05` (`505 / 10 ** 2`). Tokens usually opt for a value of 18, imitating the relationship between Ether and Wei. This is the value {ERC20} uses, unless this function is overridden; NOTE: This information is only used for _display_ purposes: it in no way affects any of the arithmetic of the contract, including {IERC20-balanceOf} and {IERC20-transfer}."
      },
      "decreaseAllowance(address,uint256)": {
        "details": "Atomically decreases the allowance granted to `spender` by the caller. This is an alternative to {approve} that can be used as a mitigation for problems described in {IERC20-approve}. Emits an {Approval} event indicating the updated allowance. Requirements: - `spender` cannot be the zero address. - `spender` must have allowance for the caller of at least `subtractedValue`."
      },
      "increaseAllowance(address,uint256)": {
        "details": "Atomically increases the allowance granted to `spender` by the caller. This is an alternative to {approve} that can be used as a mitigation for problems described in {IERC20-approve}. Emits an {Approval} event indicating the updated allowance. Requirements: - `spender` cannot be the zero address."
      },
      "name()": {
        "details": "Returns the name of the token."
      },
      "owner()": {
        "details": "Returns the address of the current owner."
      },
      "paused()": {
        "details": "Returns true if the contract is paused, and false otherwise."
      },
      "renounceOwnership()": {
        "details": "Leaves the contract without owner. It will not be possible to call `onlyOwner` functions anymore. Can only be called by the current owner. NOTE: Renouncing ownership will leave the contract without an owner, thereby removing any functionality that is only available to the owner."
      },
      "symbol()": {
        "details": "Returns the symbol of the token, usually a shorter version of the name."
      },
      "totalSupply()": {
        "details": "See {IERC20-totalSupply}."
      },
      "transfer(address,uint256)": {
        "details": "See {IERC20-transfer}. Requirements: - `recipient` cannot be the zero address. - the caller must have a balance of at least `amount`."
      },
      "transferFrom(address,address,uint256)": {
        "details": "See {IERC20-transferFrom}. Emits an {Approval} event indicating the updated allowance. This is not required by the EIP. See the note at the beginning of {ERC20}. Requirements: - `sender` and `recipient` cannot be the zero address. - `sender` must have a balance of at least `amount`. - the caller must have allowance for ``sender``'s tokens of at least `amount`."
      },
      "transferOwnership(address)": {
        "details": "Transfers ownership of the contract to a new account (`newOwner`). Can only be called by the current owner."
      }
    },
    "version": 1
  },
  "userdoc": {
    "kind": "user",
    "methods": {},
    "version": 1
  }
}