{
  "contractName": "Crowdsale",
  "abi": [
    {
      "inputs": [
        {
          "internalType": "contract ERC20",
          "name": "_token",
          "type": "address"
        },
        {
          "internalType": "address payable",
          "name": "_wallet",
          "type": "address"
        }
      ],
      "stateMutability": "nonpayable",
      "type": "constructor"
    },
    {
      "inputs": [],
      "name": "rate",
      "outputs": [
        {
          "internalType": "uint256",
          "name": "",
          "type": "uint256"
        }
      ],
      "stateMutability": "view",
      "type": "function"
    },
    {
      "inputs": [],
      "name": "token",
      "outputs": [
        {
          "internalType": "contract ERC20",
          "name": "",
          "type": "address"
        }
      ],
      "stateMutability": "view",
      "type": "function"
    },
    {
      "inputs": [],
      "name": "total_amount",
      "outputs": [
        {
          "internalType": "uint256",
          "name": "",
          "type": "uint256"
        }
      ],
      "stateMutability": "view",
      "type": "function"
    },
    {
      "inputs": [],
      "name": "wallet",
      "outputs": [
        {
          "internalType": "address payable",
          "name": "",
          "type": "address"
        }
      ],
      "stateMutability": "view",
      "type": "function"
    },
    {
      "inputs": [],
      "name": "buyTokens",
      "outputs": [],
      "stateMutability": "payable",
      "type": "function"
    }
  ],
  "bytecode": "0x6080604052600a60035569021e19e0c9bab24000006004553480156200002457600080fd5b5060405162000cfc38038062000cfc83398181016040528101906200004a91906200010a565b600160008190555081600160006101000a81548173ffffffffffffffffffffffffffffffffffffffff021916908373ffffffffffffffffffffffffffffffffffffffff16021790555080600260006101000a81548173ffffffffffffffffffffffffffffffffffffffff021916908373ffffffffffffffffffffffffffffffffffffffff1602179055505050620001e6565b600081519050620000ed81620001b2565b92915050565b6000815190506200010481620001cc565b92915050565b60008060408385031215620001245762000123620001ad565b5b60006200013485828601620000f3565b92505060206200014785828601620000dc565b9150509250929050565b60006200015e826200018d565b9050919050565b600062000172826200018d565b9050919050565b6000620001868262000151565b9050919050565b600073ffffffffffffffffffffffffffffffffffffffff82169050919050565b600080fd5b620001bd8162000165565b8114620001c957600080fd5b50565b620001d78162000179565b8114620001e357600080fd5b50565b610b0680620001f66000396000f3fe60806040526004361061004a5760003560e01c80632c4e722e1461004f578063521eb2731461007a578063673cd98e146100a5578063d0febe4c146100d0578063fc0c546a146100da575b600080fd5b34801561005b57600080fd5b50610064610105565b604051610071919061081a565b60405180910390f35b34801561008657600080fd5b5061008f61010b565b60405161009c9190610719565b60405180910390f35b3480156100b157600080fd5b506100ba610131565b6040516100c7919061081a565b60405180910390f35b6100d8610137565b005b3480156100e657600080fd5b506100ef61025f565b6040516100fc919061075d565b60405180910390f35b60035481565b600260009054906101000a900473ffffffffffffffffffffffffffffffffffffffff1681565b60045481565b6002600054141561017d576040517f08c379a0000000000000000000000000000000000000000000000000000000008152600401610174906107fa565b60405180910390fd5b600260008190555060003490506101eb336101a38360035461028590919063ffffffff16565b600160009054906101000a900473ffffffffffffffffffffffffffffffffffffffff1673ffffffffffffffffffffffffffffffffffffffff1661029b9092919063ffffffff16565b600260009054906101000a900473ffffffffffffffffffffffffffffffffffffffff1673ffffffffffffffffffffffffffffffffffffffff166108fc829081150290604051600060405180830381858888f19350505050158015610253573d6000803e3d6000fd5b50506001600081905550565b600160009054906101000a900473ffffffffffffffffffffffffffffffffffffffff1681565b600081836102939190610867565b905092915050565b61031c8363a9059cbb60e01b84846040516024016102ba929190610734565b604051602081830303815290604052907bffffffffffffffffffffffffffffffffffffffffffffffffffffffff19166020820180517bffffffffffffffffffffffffffffffffffffffffffffffffffffffff8381831617835250505050610321565b505050565b6000610383826040518060400160405280602081526020017f5361666545524332303a206c6f772d6c6576656c2063616c6c206661696c65648152508573ffffffffffffffffffffffffffffffffffffffff166103e89092919063ffffffff16565b90506000815111156103e357808060200190518101906103a391906105a3565b6103e2576040517f08c379a00000000000000000000000000000000000000000000000000000000081526004016103d9906107da565b60405180910390fd5b5b505050565b60606103f78484600085610400565b90509392505050565b606082471015610445576040517f08c379a000000000000000000000000000000000000000000000000000000000815260040161043c9061079a565b60405180910390fd5b61044e85610514565b61048d576040517f08c379a0000000000000000000000000000000000000000000000000000000008152600401610484906107ba565b60405180910390fd5b6000808673ffffffffffffffffffffffffffffffffffffffff1685876040516104b69190610702565b60006040518083038185875af1925050503d80600081146104f3576040519150601f19603f3d011682016040523d82523d6000602084013e6104f8565b606091505b5091509150610508828286610527565b92505050949350505050565b600080823b905060008111915050919050565b6060831561053757829050610587565b60008351111561054a5782518084602001fd5b816040517f08c379a000000000000000000000000000000000000000000000000000000000815260040161057e9190610778565b60405180910390fd5b9392505050565b60008151905061059d81610ab9565b92915050565b6000602082840312156105b9576105b86109b3565b5b60006105c78482850161058e565b91505092915050565b6105d9816108d3565b82525050565b6105e8816108c1565b82525050565b60006105f982610835565b610603818561084b565b9350610613818560208601610951565b80840191505092915050565b6106288161091b565b82525050565b600061063982610840565b6106438185610856565b9350610653818560208601610951565b61065c816109b8565b840191505092915050565b6000610674602683610856565b915061067f826109c9565b604082019050919050565b6000610697601d83610856565b91506106a282610a18565b602082019050919050565b60006106ba602a83610856565b91506106c582610a41565b604082019050919050565b60006106dd601f83610856565b91506106e882610a90565b602082019050919050565b6106fc81610911565b82525050565b600061070e82846105ee565b915081905092915050565b600060208201905061072e60008301846105d0565b92915050565b600060408201905061074960008301856105df565b61075660208301846106f3565b9392505050565b6000602082019050610772600083018461061f565b92915050565b60006020820190508181036000830152610792818461062e565b905092915050565b600060208201905081810360008301526107b381610667565b9050919050565b600060208201905081810360008301526107d38161068a565b9050919050565b600060208201905081810360008301526107f3816106ad565b9050919050565b60006020820190508181036000830152610813816106d0565b9050919050565b600060208201905061082f60008301846106f3565b92915050565b600081519050919050565b600081519050919050565b600081905092915050565b600082825260208201905092915050565b600061087282610911565b915061087d83610911565b9250817fffffffffffffffffffffffffffffffffffffffffffffffffffffffffffffffff04831182151516156108b6576108b5610984565b5b828202905092915050565b60006108cc826108f1565b9050919050565b60006108de826108f1565b9050919050565b60008115159050919050565b600073ffffffffffffffffffffffffffffffffffffffff82169050919050565b6000819050919050565b60006109268261092d565b9050919050565b60006109388261093f565b9050919050565b600061094a826108f1565b9050919050565b60005b8381101561096f578082015181840152602081019050610954565b8381111561097e576000848401525b50505050565b7f4e487b7100000000000000000000000000000000000000000000000000000000600052601160045260246000fd5b600080fd5b6000601f19601f8301169050919050565b7f416464726573733a20696e73756666696369656e742062616c616e636520666f60008201527f722063616c6c0000000000000000000000000000000000000000000000000000602082015250565b7f416464726573733a2063616c6c20746f206e6f6e2d636f6e7472616374000000600082015250565b7f5361666545524332303a204552433230206f7065726174696f6e20646964206e60008201527f6f74207375636365656400000000000000000000000000000000000000000000602082015250565b7f5265656e7472616e637947756172643a207265656e7472616e742063616c6c00600082015250565b610ac2816108e5565b8114610acd57600080fd5b5056fea264697066735822122040c042a9735059fe62ec054c76fcefedb741ddf36c7762c2afa80cd6fb3eea5364736f6c63430008070033",
  "immutableReferences": {},
  "source": "// SPDX-License-Identifier: MIT\npragma solidity >=0.4.22 <0.9.0;\nimport \"@openzeppelin/contracts/token/ERC20/ERC20.sol\";\nimport \"@openzeppelin/contracts/security/ReentrancyGuard.sol\";\nimport \"@openzeppelin/contracts/token/ERC20/utils/SafeERC20.sol\";\nimport \"@openzeppelin/contracts/utils/math/SafeMath.sol\";\nimport \"@openzeppelin/contracts/token/ERC20/utils/SafeERC20.sol\";\n\ncontract Crowdsale is ReentrancyGuard{\n    using SafeMath for uint256;\n    using SafeERC20 for ERC20;\n    ERC20 public token;\n    address payable public  wallet;\n    uint256 public rate = 10;\n    uint256 public total_amount = 10000 * 1e18;\n\n    constructor(ERC20 _token, address payable _wallet) {\n        token = _token;\n        wallet = _wallet;\n    }\n\n    function buyTokens() external payable nonReentrant{\n        uint256 weiAmount = msg.value;\n        token.safeTransfer(msg.sender, rate.mul(weiAmount));\n        wallet.transfer(weiAmount);\n    }\n}\n",
  "sourcePath": "/Users/xuxh/tests/contracts/auction/contracts/Crowdsale.sol",
  "compiler": {
    "name": "solc",
    "version": "0.8.7+commit.e28d00a7.Emscripten.clang"
  },
  "schemaVersion": "3.4.1",
  "updatedAt": "2021-09-02T07:19:08.881Z",
  "devdoc": {
    "kind": "dev",
    "methods": {},
    "version": 1
  },
  "userdoc": {
    "kind": "user",
    "methods": {},
    "version": 1
  }
}