{
  "contractName": "VaultFactory",
  "abi": [
    {
      "anonymous": false,
      "inputs": [
        {
          "indexed": false,
          "internalType": "address",
          "name": "vault",
          "type": "address"
        }
      ],
      "name": "VaultCreated",
      "type": "event"
    },
    {
      "inputs": [
        {
          "internalType": "bytes32",
          "name": "salt",
          "type": "bytes32"
        },
        {
          "internalType": "address payable",
          "name": "owner",
          "type": "address"
        }
      ],
      "name": "deployVault",
      "outputs": [],
      "stateMutability": "nonpayable",
      "type": "function"
    },
    {
      "inputs": [
        {
          "internalType": "bytes32",
          "name": "salt",
          "type": "bytes32"
        }
      ],
      "name": "computeAddress",
      "outputs": [
        {
          "internalType": "address",
          "name": "",
          "type": "address"
        }
      ],
      "stateMutability": "view",
      "type": "function"
    },
    {
      "inputs": [
        {
          "internalType": "bytes32",
          "name": "salt",
          "type": "bytes32"
        }
      ],
      "name": "sendValue",
      "outputs": [],
      "stateMutability": "payable",
      "type": "function"
    }
  ],
  "bytecode": "0x608060405234801561001057600080fd5b50610c17806100206000396000f3fe6080604052600436106100345760003560e01c80637fde56da14610039578063e058beea14610076578063f414d1a51461009f575b600080fd5b34801561004557600080fd5b50610060600480360381019061005b91906104b7565b6100bb565b60405161006d91906106bc565b60405180910390f35b34801561008257600080fd5b5061009d600480360381019061009891906104e4565b6100fd565b005b6100b960048036038101906100b491906104b7565b6101d7565b005b600080604051806020016100ce90610480565b6020820181038252601f19601f8201166040525090506100f5838280519060200120610222565b915050919050565b600061012e600a846040518060200161011590610480565b6020820181038252601f19601f82011660405250610237565b90508073ffffffffffffffffffffffffffffffffffffffff1663c4d66de8836040518263ffffffff1660e01b815260040161016991906106d7565b600060405180830381600087803b15801561018357600080fd5b505af1158015610197573d6000803e3d6000fd5b505050507f2e49a5810fda2439a23771848b4acec786b0a64d4de3d124ac57fc8739c38875816040516101ca91906106bc565b60405180910390a1505050565b600080604051806020016101ea90610480565b6020820181038252601f19601f820116604052509050610211838280519060200120610222565b915061021d8234610348565b505050565b600061022f83833061043c565b905092915050565b6000808447101561027d576040517f08c379a000000000000000000000000000000000000000000000000000000000815260040161027490610772565b60405180910390fd5b6000835114156102c2576040517f08c379a00000000000000000000000000000000000000000000000000000000081526004016102b9906106f2565b60405180910390fd5b8383516020850187f59050600073ffffffffffffffffffffffffffffffffffffffff168173ffffffffffffffffffffffffffffffffffffffff16141561033d576040517f08c379a000000000000000000000000000000000000000000000000000000000815260040161033490610752565b60405180910390fd5b809150509392505050565b8047101561038b576040517f08c379a000000000000000000000000000000000000000000000000000000000815260040161038290610732565b60405180910390fd5b60008273ffffffffffffffffffffffffffffffffffffffff16826040516103b1906106a7565b60006040518083038185875af1925050503d80600081146103ee576040519150601f19603f3d011682016040523d82523d6000602084013e6103f3565b606091505b5050905080610437576040517f08c379a000000000000000000000000000000000000000000000000000000000815260040161042e90610712565b60405180910390fd5b505050565b60008060ff60f81b83868660405160200161045a9493929190610659565b6040516020818303038152906040528051906020012090508060001c9150509392505050565b61024b8061099783390190565b60008135905061049c81610968565b92915050565b6000813590506104b18161097f565b92915050565b6000602082840312156104cd576104cc610860565b5b60006104db848285016104a2565b91505092915050565b600080604083850312156104fb576104fa610860565b5b6000610509858286016104a2565b925050602061051a8582860161048d565b9150509250929050565b61052d816107c0565b82525050565b61053c816107ae565b82525050565b61055361054e826107ae565b610828565b82525050565b61056a610565826107d2565b61083a565b82525050565b61058161057c826107fe565b610844565b82525050565b600061059460208361079d565b915061059f82610872565b602082019050919050565b60006105b7603a8361079d565b91506105c28261089b565b604082019050919050565b60006105da601d8361079d565b91506105e5826108ea565b602082019050919050565b60006105fd60198361079d565b915061060882610913565b602082019050919050565b6000610620600083610792565b915061062b8261093c565b600082019050919050565b6000610643601d8361079d565b915061064e8261093f565b602082019050919050565b60006106658287610559565b6001820191506106758286610542565b6014820191506106858285610570565b6020820191506106958284610570565b60208201915081905095945050505050565b60006106b282610613565b9150819050919050565b60006020820190506106d16000830184610533565b92915050565b60006020820190506106ec6000830184610524565b92915050565b6000602082019050818103600083015261070b81610587565b9050919050565b6000602082019050818103600083015261072b816105aa565b9050919050565b6000602082019050818103600083015261074b816105cd565b9050919050565b6000602082019050818103600083015261076b816105f0565b9050919050565b6000602082019050818103600083015261078b81610636565b9050919050565b600081905092915050565b600082825260208201905092915050565b60006107b982610808565b9050919050565b60006107cb82610808565b9050919050565b60007fff0000000000000000000000000000000000000000000000000000000000000082169050919050565b6000819050919050565b600073ffffffffffffffffffffffffffffffffffffffff82169050919050565b60006108338261084e565b9050919050565b6000819050919050565b6000819050919050565b600061085982610865565b9050919050565b600080fd5b60008160601b9050919050565b7f437265617465323a2062797465636f6465206c656e677468206973207a65726f600082015250565b7f416464726573733a20756e61626c6520746f2073656e642076616c75652c207260008201527f6563697069656e74206d61792068617665207265766572746564000000000000602082015250565b7f416464726573733a20696e73756666696369656e742062616c616e6365000000600082015250565b7f437265617465323a204661696c6564206f6e206465706c6f7900000000000000600082015250565b50565b7f437265617465323a20696e73756666696369656e742062616c616e6365000000600082015250565b610971816107c0565b811461097c57600080fd5b50565b610988816107fe565b811461099357600080fd5b5056fe608060405234801561001057600080fd5b5061022b806100206000396000f3fe608060405234801561001057600080fd5b50600436106100365760003560e01c80633ccfd60b1461003b578063c4d66de814610045575b600080fd5b610043610061565b005b61005f600480360381019061005a919061017a565b610122565b005b3373ffffffffffffffffffffffffffffffffffffffff1660008054906101000a900473ffffffffffffffffffffffffffffffffffffffff1673ffffffffffffffffffffffffffffffffffffffff16146100b957600080fd5b60008054906101000a900473ffffffffffffffffffffffffffffffffffffffff1673ffffffffffffffffffffffffffffffffffffffff166108fc479081150290604051600060405180830381858888f1935050505015801561011f573d6000803e3d6000fd5b50565b806000806101000a81548173ffffffffffffffffffffffffffffffffffffffff021916908373ffffffffffffffffffffffffffffffffffffffff16021790555050565b600081359050610174816101de565b92915050565b6000602082840312156101905761018f6101d9565b5b600061019e84828501610165565b91505092915050565b60006101b2826101b9565b9050919050565b600073ffffffffffffffffffffffffffffffffffffffff82169050919050565b600080fd5b6101e7816101a7565b81146101f257600080fd5b5056fea2646970667358221220355b4c2603784607e5362aa47e0b6da0e92cfff0574a495eceee1d449651d1c664736f6c63430008070033a264697066735822122011d2d7dc4c157d6ac071ca700189542cdf924874ab274eeccde8f0277dd2d61864736f6c63430008070033",
  "immutableReferences": {},
  "source": "// SPDX-License-Identifier: MIT\npragma solidity >=0.4.22 <0.9.0;\n\nimport \"./Vault.sol\";\nimport \"@openzeppelin/contracts/utils/Create2.sol\";\nimport \"@openzeppelin/contracts/utils/Address.sol\";\n\ncontract VaultFactory {\n    event VaultCreated(address vault);\n\n    function deployVault(bytes32 salt, address payable owner) public {\n        address vaultAddress;\n\n        vaultAddress = Create2.deploy(10, salt, type(Vault).creationCode);\n        Vault(vaultAddress).initialize(owner);\n\n        emit VaultCreated(vaultAddress);\n    }\n\n    function computeAddress(bytes32 salt) public view returns (address) {\n        bytes memory _code = type(Vault).creationCode;\n        return Create2.computeAddress(salt, keccak256(_code));\n    }\n\n    function sendValue(bytes32 salt) external payable {\n        address vaultAddress;\n\n        bytes memory _code = type(Vault).creationCode;\n        vaultAddress = Create2.computeAddress(salt, keccak256(_code));\n\n        Address.sendValue(payable(vaultAddress), msg.value);\n    }\n}\n",
  "sourcePath": "/Users/xuxh/tests/contracts/auction/contracts/VaultFactory.sol",
  "compiler": {
    "name": "solc",
    "version": "0.8.7+commit.e28d00a7.Emscripten.clang"
  },
  "schemaVersion": "3.4.1",
  "updatedAt": "2021-09-02T07:19:08.884Z",
  "devdoc": {
    "kind": "dev",
    "methods": {},
    "version": 1
  },
  "userdoc": {
    "kind": "user",
    "methods": {},
    "version": 1
  }
}